:020000040800F2
:10000000B80A002049010008A90E0008D10A00081A
:100010002D0E00088F0700082727000800000000A9
:10002000000000000000000000000000E1160008D1
:100030009307000800000000891500084518000813
:100040006301000863010008630100086301000800
:1000500063010008630100086301000863010008F0
:1000600063010008630100086301000863010008E0
:1000700063010008630100086301000863010008D0
:1000800063010008630100086301000863010008C0
:1000900063010008630100086301000863010008B0
:1000A00063010008630100086301000863010008A0
:1000B000B11B0008C91B0008E91B00086301000808
:1000C0006301000863010008630100086301000880
:1000D0006301000863010008E52200088D24000880
:1000E0006301000863010008630100086301000860
:1000F0006301000863010008630100086301000850
:10010000630100086301000863010008630100083F
:100110006301000829220008051C0008630100088B
:10012000630100086301000863010008630100081F
:10013000DFF810D000F0EEFA00480047252C000848
:10014000AFF30080B80A0020064880470648004701
:10015000FEE7FEE7FEE7FEE7FEE7FEE7FEE7FEE777
:10016000FEE7FEE749180008310100082DE9FE4FBF
:10017000804681EA0300C00F0C46009021F0004148
:1001800023F00045B8EB0200A94105D240462146C4
:1001900090461C460B46024623F00040104347D0D1
:1001A000270DC7F30A00C3F30A510290401A0190C9
:1001B00040286BDAC3F3130040F4801B009892468A
:1001C00020B10023D2EB030A63EB0B0B01985946D5
:1001D000C0F14002504600F0C0F906460D465046B8
:1001E0005946019A00F0D8F910EB0800614100244B
:1001F00087EA115284EAE7731A4340D0009A62B347
:10020000019A012A4FEA075215DC001B61EB02013B
:100210004FF0004202EA0752CDE90042001C41F5CE
:10022000801132462B4600F00FFA03B0BDE8F08F84
:1002300040462146F9E7001B61EB0201001C41F535
:10024000801300185B412018A2F5001747EB03014B
:1002500040EAD570B6196D4111E06D084FEA3606D7
:1002600045EAC0754FEA0752001B61EB0201001C12
:1002700041F5801149084FEA3000001951413246DA
:100280002B4603B0BDE8F04F00F0CFB90098012233
:1002900040000023D0EB020263EBE073009821469C
:1002A0004FEAE074B8EB000061EB0401E9E783F08A
:1002B00000435BE781F0004158E72DE9FE4F81EAFA
:1002C000030404F0004421F0004100944FF0000BBF
:1002D00023F0004350EA01045ED052EA03045BD0ED
:1002E000C3F30A54C1F30A552C44A4F2F334019425
:1002F000A0FB0254C1F3130141F48011C3F31303B3
:1003000043F4801301FB024400FB034E840A970A66
:1003100044EA815447EA8357A4FB076802958D0A93
:1003200005FB07854FEA932C04FB0C542705029D1F
:100330004FEA065847EA1637B5EB08056EEB070C8F
:10034000870E920E47EA811742EA8312A7FB020149
:10035000B6EB0B0164EB00042B0D43EA0C335E1883
:1003600044EB1C50DA465146E7FB0201C5F3130487
:100370004FEA0B3343EA14534FEA0432019C43EA39
:100380000603A4F10C040294009CCDE900B400F033
:100390005BF903B0BDE8F08F00200146F9E72DE9D5
:1003A000F04D81EA030404F0004B21F000451446AF
:1003B0004FF0000A23F0004150EA050220D054EA31
:1003C00001021DD0C5F30A570246C5F31303C1F35A
:1003D0001300C1F30A5640F4801543F48013A7EBD1
:1003E0000608101BD64608F2FD3873EB050002D351
:1003F00008F1010801E092185B41B8F1000F03DA3F
:1004000000200146BDE8F08D00204FF48011064623
:1004100084460EE0171B73EB050705D3121B63EB35
:10042000050306434CEA010C49084FEA30009218D4
:100430005B4150EA0107EDD152EA030012D082EA93
:10044000040083EA0501084305D0101BAB4106D226
:100450000122002306E000224FF0004302E06FF08B
:10046000010253101AEB06004CEB085110EB0A0086
:1004700041EB0B01BDE8F04D00F0D7B80EB5C10F50
:1004800080EAE0700844CA07002140F233438DE857
:100490000E000A460B4600F0D7F803B000BDC1F3CA
:1004A0000A5210B5C1F3130140F2FF3341F4801139
:1004B0009A4201DA002010BD40F233439A42A2F280
:1004C000334203DC524200F057F810BD904010BD9B
:1004D00000F0004230F000400AD0C10D01F560711B
:1004E000C0F3160042EA0151C208400711437047A9
:1004F00000200146704701F0004330B421F0004174
:1005000050EA010206D00A0DA2F56072C1F3130190
:10051000002A02DC30BC00207047440F44EAC104CA
:10052000C100E01830BC00EBC25000F047B830B555
:100530000B46014600202022012409E021FA02F5A1
:100540009D4205D303FA02F5491B04FA02F528443B
:10055000151EA2F10102F1DC30BD202A04DB203A95
:1005600000FA02F1002070479140C2F1200320FA06
:1005700003F3194390407047202A04DB203A21FA04
:1005800002F00021704721FA02F3D040C2F12002AC
:100590009140084319467047202A06DBCB17203AC2
:1005A00041FA02F043EAE07306E041FA02F3D04078
:1005B000C2F1200291400843194670470029A8BFA4
:1005C0007047401C490008BF20F00100704710B47C
:1005D000B0FA80FC00FA0CF050EA010404BF10BC31
:1005E000704749B1CCF1200421FA04F411FA0CF15E
:1005F00018BF012121430843A3EB0C01CB1D4FEA97
:1006000000614FEA102042BF002010BC704700EB91
:10061000C35010440029A4BF10BC7047401C4900BF
:1006200008BF20F0010010BC704710B5141E73F114
:10063000000408DA401C41F1000192185B411A43A2
:1006400001D120F0010010BD2DE9F04D92469B46EE
:1006500011B1B1FA81F202E0B0FA80F22032904694
:10066000FFF77BFF04460F4640EA0A0041EA0B0110
:1006700053465A46084313D0114653EA010019D095
:10068000C8F140025046FFF777FF05460E46504638
:1006900059464246FFF761FF084305D0012004E0B8
:1006A00020463946BDE8F08D0020054346EAE07655
:1006B0002C4337430A986305E40AA0EB08000022A4
:1006C000FD0A44EA47540A3002D500200146E9E712
:1006D000010510196941DDE9084500196941BDE8C6
:1006E000F04DA2E730B5041E71F1000404DB4FF0B9
:1006F0000044404264EB0101141E73F1000405DB69
:100700001C464FF00043524263EB0403994208BF7A
:10071000904230BD064C074D06E0E06840F0010312
:1007200094E8070098471034AC42F6D3FFF704FD75
:10073000DC2F0008FC2F000870B58C1810F8015B46
:1007400015F0070301D110F8013B2A1106D110F86A
:10075000012B03E010F8016B01F8016B5B1EF9D16E
:100760002B0705D40023521E0DD401F8013BFAE7F4
:1007700010F8013BCB1A921C03E013F8015B01F85F
:10078000015B521EF9D5A142D8D3002070BD00BF35
:10079000FEE7704700B587B00121042000F016FF86
:1007A0000121084600F0F2FE04208DF81B00032012
:1007B000ADF8180006A91C4800F0D0F803A801F015
:1007C00029FD0020ADF81200ADF80E004FF6FF70C5
:1007D000ADF810000020ADF80C0003A94FF08040E8
:1007E00001F0C6FC00231A4603214FF0804001F0BF
:1007F0009AFA684601F020FB0A20ADF80800694625
:10080000400701F0C3FA01221146900701F01DFBD9
:1008100000214FF0804001F07CFC0121880701F0AD
:1008200067FA07B000BD00000008014000B587B0BE
:100830000121042000F0CAFE0121022000F0A6FEE2
:1008400004208DF81B00C020ADF8180006A91A4836
:1008500000F084F803A801F0DDFC0020ADF81200E0
:10086000ADF80E004FF6FF70ADF810000020ADF8A7
:100870000C0003A9114801F07BFC00231A46032158
:100880000E4801F050FA684601F0D6FA0A20ADF899
:1008900008006946094801F079FA01221146074823
:1008A00001F0D3FA0021054801F033FC012103488F
:1008B00001F01EFA07B000BD00080140000400402E
:1008C00000B587B00121082000F080FE012104203E
:1008D00000F05CFE04208DF81B00C020ADF818006D
:1008E00006A91C4800F03AF803A801F093FC002088
:1008F000ADF81200ADF80E004FF6FF70ADF8100025
:100900000020ADF80C0003A9134801F031FC0023CE
:100910001A460321104801F006FA684601F08CFAE5
:100920000A20ADF8080069460B4801F02FFA0121B2
:10093000094801F0D7F901221146074801F085FA6C
:100940000021054801F0E5FB0121034801F0D0F941
:1009500007B000BD000C0140000800402DE9F04147
:10096000024600250026002000230024002791F8DD
:1009700003C00CF00F0591F803C00CF0100CBCF193
:10098000000F03D091F802C04CEA050591F800C0B1
:10099000BCF1000F31D0146800202BE04FF0010CA7
:1009A0000CFA00F3B1F800C00CEA03069E4220D115
:1009B00083004FF00F0C0CFA03F7BC4305FA03FC5D
:1009C0004CEA040491F803C0BCF1280F06D14FF0A3
:1009D000010C0CFA00FCC2F814C00AE091F803C044
:1009E000BCF1480F05D14FF0010C0CFA00FCC2F825
:1009F00010C0401C0828D1D31460B1F800C0BCF16D
:100A0000FF0F34DD546800202EE000F1080C4FF099
:100A1000010808FA0CF3B1F800C00CEA03069E4284
:100A200021D183004FF00F0C0CFA03F7BC4305FAF9
:100A300003FC4CEA040491F803C0BCF1280F05D173
:100A400000F1080C08FA0CF8C2F8148091F803C001
:100A5000BCF1480F07D100F1080C4FF0010808FA6B
:100A60000CF8C2F81080401C0828CED35460BDE8B2
:100A7000F0814161704701617047000008B50121B4
:100A8000402000F0A3FD0121102000F09FFD102068
:100A90008DF8030003208DF802003020ADF800002F
:100AA00069460948FFF75AFF1020ADF80000694673
:100AB0000648FFF753FF30210348FFF7DAFF102104
:100AC0000248FFF7D6FF08BD0018014000100140A2
:100AD00000BFFEE710B520210A48FFF7CCFF202118
:100AE0000948FFF7C8FF00F099F920210548FFF7F2
:100AF000C0FF00F093F920210348FFF7BAFF00F090
:100B00008DF910BD00180140000C014010B52021E6
:100B10000648FFF7AEFF20210548FFF7ACFF00F0C5
:100B20007DF920210148FFF7A6FF10BD0018014004
:100B3000000C014010B520210848FFF79CFF00F091
:100B40006DF920210648FFF796FF00F067F9202194
:100B50000348FFF78EFF00F061F910BD0018014057
:100B6000000C014010B500200F4908600F480068D4
:100B700020F0F0000D4908600846006840F03000A1
:100B8000086000200A49C1F8A401022001F0A4FF76
:100B9000012005490860022001F09EFF0020044961
:100BA000C1F8A00110BD0000A0812142040C014049
:100BB0000080214208B50121082000F007FD4FF414
:100BC0004070ADF8000010208DF8030003208DF870
:100BD000020069460448FFF7C1FE4FF44071024825
:100BE000FFF749FF08BD0000000C014010B50020D0
:100BF0000F4908600F48006820F0F0000D490860B8
:100C00000846006840F03000086001200A49C1F839
:100C1000A401022001F060FF0120054908600220C4
:100C200001F05AFF00200449C1F8A00110BD0000E6
:100C3000A0812142040C01400080214270B505468C
:100C400000241748006820F0F000154908600846A5
:100C5000006840F080000860002616E0002011497E
:100C60000860022001F038FF01200F49C1F8A001FF
:100C70006006040E0B487C38006808B1601CC4B2E2
:100C8000012001F029FF701CC6B2082EE6DB15B961
:100C9000FFF7ACFF01E0FFF765FF204670BD0000E5
:100CA000040C0140A08121420080214270B504461D
:100CB0001848006820F0F0001649086008460068EF
:100CC00040F03000086000201349086000251EE055
:100CD000E00920B101201049091D086003E000204F
:100CE0000D49091D08606006040E022001F0F4FEA3
:100CF000012009490860022001F0EEFE00200749AA
:100D0000C1F8A001022001F0E7FE681CC5B2082D61
:100D1000DEDB70BD040C0140A08121420080214235
:100D200010B50F48006820F0F0000D490860084633
:100D3000006840F03000086001200A4908600A4954
:100D4000C1F8A001042001F0C7FE00200549086099
:100D5000042001F0C1FE00200349C1F8A00110BD2C
:100D6000040C0140A48121420080214210B50F48AB
:100D7000006820F0F0000D4908600846006840F067
:100D80003000086000200A4908600A49C1F8A4013F
:100D9000042001F0A1FE0120054908600549C1F8C1
:100DA000A401042001F098FE10BD0000040C0140D5
:100DB000A08121420080214210B50024144800681F
:100DC00020F0F000124908600846006840F08000FA
:100DD000086001200F49086001F07EFE01200E49E5
:100DE000C1F8A00101F078FE07E0601CC4B2FA2C43
:100DF00003DDFFF7BBFF012010BD06488038006807
:100E00000028F2D10349091F086000BFF4E7000081
:100E1000040C0140A481214200802142032000BF34
:100E2000011EA0F10102D0B2FAD1704700BFFEE767
:100E300008B50121402000F0C9FB10208DF8030007
:100E40000F20ADF8000003208DF80200694613481A
:100E5000FFF784FD0121080200F0B8FB10208DF897
:100E6000030040F20F60ADF8000003208DF802008F
:100E700069460B48FFF772FD0121082000F0A6FB30
:100E800010208DF803002020ADF8000003208DF81D
:100E9000020069460348FFF761FD08BD00180140E4
:100EA00000200140000C0140704708B54FF4A060DD
:100EB00000F05AF827208DF8000001208DF801007D
:100EC0008DF802008DF80300684600F015F808BDA3
:100ED00008B54FF4A06000F047F835208DF8000009
:100EE00001208DF801008DF802008DF8030068469E
:100EF00000F002F808BD000070B5002100230F22A9
:100F0000C47804B3154C246804F4E064C4F5E064C8
:100F1000210AC1F10403CA40447804FA03F1847839
:100F20001440214309010E4C0678A155047804F0C1
:100F30001F050124AC4005786D11AD0005F1E025D9
:100F4000C5F8004109E0047804F01F050124AC4015
:100F5000044D0678761145F8264070BD0CED00E092
:100F600000E400E080E100E002490143024A116030
:100F7000704700000000FA050CED00E070B5002499
:100F80000CE0002506E00020074901EBC5010855EB
:100F9000681CC5B2802DF6DB601CC4B2082CF0DBE7
:100FA00000F0C0F870BD00003402002008B5012137
:100FB000482000F00BFB2020ADF8000014208DF835
:100FC000030003208DF8020069465348FFF7C6FC72
:100FD00020215148FFF74FFD2020ADF800001420DC
:100FE0008DF8030003208DF8020069464B48FFF797
:100FF000B5FC20214948FFF73EFD1020ADF8000068
:101000008DF8030003208DF8020069464448FFF77D
:10101000A5FC10214248FFF72EFD10214048FFF7A4
:1010200028FDC82001F032FD10213D48FFF723FDC7
:101030000021AE2000F0AAF80021084600F0A6F832
:101040000021102000F0A2F80021402000F09EF8BE
:101050000021812000F09AF80021CF2000F096F8BE
:101060000021A12000F092F80021C82000F08EF8A5
:101070000021A62000F08AF80021A82000F086F8C0
:1010800000213F2000F082F80021D32000F07EF8FC
:101090000021084600F07AF80021D52000F076F80B
:1010A0000021802000F072F80021D92000F06EF8B5
:1010B0000021F12000F06AF80021DA2000F066F843
:1010C0000021122000F062F80021DB2000F05EF821
:1010D0000021402000F05AF80021202000F056F8AE
:1010E0000021022000F052F800218D2000F04EF87F
:1010F0000021142000F04AF80021A42000F046F856
:101100000021A62000F042F8FFF738FF0021AF20B1
:1011100000F03CF808BD0000000C01400018014040
:101120000014014070B500242BE004F1B001C8B2F6
:10113000002100F02BF80021084600F027F80021DC
:10114000102000F023F8FFF7C5FC782000F0CAFA61
:10115000FFF7F0FC402000F0C5FAFFF7EBFC00259C
:1011600009E0094901EBC501085D00F0BBFAFFF792
:10117000E1FC681CC5B2802DF3DBFFF7C7FC601CE7
:10118000C4B2082CD1DB70BD3402002070B5054616
:101190000C46FFF79FFC782000F0A4FAFFF7CAFC8A
:1011A0001CB1402000F09EFA02E0002000F09AFA04
:1011B000FFF7C0FC284600F095FAFFF7BBFCFFF7ED
:1011C000A5FC70BD10B504464548006870B92C2CCC
:1011D0000CD1012042490860424801680068401C67
:1011E000404A1060404840F8214077E03C480068A1
:1011F00001280ED1122C0CD102203949086039483F
:1012000001680068401C374A1060374840F82140A8
:1012100064E033480068022812D13248016800684F
:10122000401C304A1060304840F8214010460068A9
:10123000052801DC5B2C51D10320294908604DE0D1
:1012400027480068032844D126480068401E2649E4
:1012500051F820005B2836D100202149086022483F
:1012600080682149C96840EA012020490860084691
:101270000068642190FBF1F01D4908701B4800686C
:10128000642190FBF1F201FB12000A2190FBF1F0C6
:1012900017494870154800680A2190FBF1F201FBDC
:1012A0001200134988701148016812A001F03EFA3B
:1012B00014A001F03BFA0D48006800280EDD012063
:1012C000114908600AE000200549086005490860E6
:1012D00004E00020024908600249086010BD0000D7
:1012E000D8000020F400002004020020FC000020B0
:1012F00014010020C7F2B5C4CEBBD6C3CAC725644B
:10130000000000000A000000E800002010B50446BC
:101310004348006870B92C2C0CD10120404908606A
:10132000404801680068401C3E4A10603E4840F852
:10133000214073E03A48006801280ED1122C0CD1EC
:10134000022037490860374801680068401C354A68
:101350001060354840F8214060E0314800680228BC
:1013600012D1304801680068401C2E4A10602E4897
:1013700040F8214010460068052801DC5B2C4DD167
:1013800003202749086049E025480068032840D128
:1013900024480068401E244951F820005B2832D1BF
:1013A00000201F490860204880681F49C96840EA3A
:1013B00001201E49086008460068642190FBF1F096
:1013C0001B49087019480068642190FBF1F201FB89
:1013D00012000A2190FBF1F015494870134800688B
:1013E0000A2190FBF1F201FB1200114988700F48AD
:1013F000016810A001F09AF912A001F097F90120FC
:10140000114908600AE000200549086005490860A4
:1014100004E00020024908600249086010BD000095
:10142000DC000020F4000020040200200001002065
:1014300017010020C7F2B5C4CEBBD6C3CAC7256406
:10144000000000000A000000EC00002010B5044677
:101450003D48006870B92C2C0CD101203A49086035
:101460003A4801680068401C384A1060384840F823
:10147000214067E03448006801280ED1122C0CD1BD
:10148000022031490860314801680068401C2F4A39
:1014900010602F4840F8214054E02B480068022893
:1014A0000ED12A4801680068401C284A106028486C
:1014B00040F821405B2C45D103202349086041E0DE
:1014C00021480068032838D120480068401E204980
:1014D00051F820005B282AD100201B4908601C48D5
:1014E00080681B49C96840EA01201A490860184809
:1014F00000691749496940EA0120174908601749FE
:101500001448006801F07FFC15491348006801F099
:101510007AFC114802680F48016812A001F006F930
:1015200017A001F003F90120164908600AE0002025
:10153000054908600549086004E000200249086088
:101540000249086010BD0000E0000020F800002003
:10155000E801002004010020080100201A010020F9
:101560001D010020B5DAD2BBB4CEB0E1D4CB2564E6
:101570002CB5DAB6FEB4CEB0E1D4CB2564000000C1
:101580000A000000E40000207047000029B1064A6C
:10159000D2690243044BDA6104E0034AD269824310
:1015A000014BDA61704700000010024029B1064A81
:1015B00012690243044B1A6104E0034A1269824330
:1015C000014B1A61704700000010024029B1064A21
:1015D00092690243044B9A6104E0034A9269824390
:1015E000014B9A61704700000010024029B1064A81
:1015F000D2680243044BDA6004E0034AD2688243B3
:10160000014BDA60704700000010024030B5002145
:101610000022002400232D4D6D6805F00C0121B13E
:10162000042905D0082923D105E0294D056022E0D1
:10163000274D05601FE0254D6D6805F47012234DA0
:101640006D6805F48034022505EB92421CB9214DEA
:10165000554305600BE01D4D6D6805F400351DB167
:101660001C4D5543056002E0194D5543056002E0ED
:10167000174D056000BF00BF144D6D6805F0F00107
:101680000909154D6B5C0568DD4045600F4D6D68BF
:1016900005F4E061090A104D6B5C4568DD4085602A
:1016A0000A4D6D6805F46051C90A0B4D6B5C4568C5
:1016B000DD40C560054D6D6805F44041890B074D5F
:1016C0006B5CC568B5FBF3F5056130BD00100240E9
:1016D00000127A0000093D001400002024000020C0
:1016E0007047000070B5044600251BE004F0800040
:1016F00020B120210D48FFF7BEF903E020210B485F
:10170000FFF7B7F9FFF78AFB20210948FFF7B3F984
:10171000FFF784FB20210648FFF7ABF96006040EB3
:10172000681CC5B2082DE1DB70BD00000018014047
:10173000000C014010B500F001F810BD0CB5002000
:10174000019000903348006840F4803031490860CF
:1017500000BF3048006800F4003000900198401C41
:101760000190009818B90198B0F5A06FF1D12948FF
:10177000006800F4003010B10120009001E000206A
:1017800000900098012843D12348006840F01000E1
:10179000214908600846006820F0030008600846F8
:1017A000006840F0020008601A4840681949486023
:1017B0000846406848600846406840F480604860D9
:1017C0000846406820F47C1048600846406840F4B1
:1017D000E81048600846006840F08070086000BF6C
:1017E0000C48006800F000700028F9D009484068F3
:1017F00020F00300074948600846406840F00200B6
:10180000486000BF0348406800F00C000828F9D188
:101810000CBD00000010024000200240042808D146
:101820004FF0E021096941F004014FF0E02211611D
:1018300007E04FF0E021096921F004014FF0E022B8
:10184000116170477047000010B51348006840F000
:1018500001001149086008464068104908400E49D7
:101860004860084600680E4908400B490860084671
:10187000006820F4802008600846406820F4FE00DC
:1018800048604FF41F008860FFF754FF4FF000607E
:101890000449086010BD0000001002400000FFF87D
:1018A000FFFFF6FE08ED00E0F0B50C4615460022FD
:1018B0000021068C4FF6FE773E400684028B018C99
:1018C0004FF60C7632407E1C06EA03162E43324356
:1018D000104EB0420ED0104EB0420BD0B0F1804F3F
:1018E00008D00E4EB04205D00D4EB04202D00D4E83
:1018F000B04206D14FF6FD76314044F00106314347
:1019000005E04FF6F576314044F00106314302839D
:101910000184F0BD002C014000340140000400406F
:1019200000080040000C0040F0B50C4615460022AF
:1019300000210026078C4FF6EF7C07EA0C0707848E
:10194000028B018C4FF6FF7707EA041640F6FF473B
:101950003A404FF6FF7707EA03373A434FF6FF77EF
:1019600007EA05273A43114FB8420ED0104FB8424C
:101970000BD0B0F1804F08D00E4FB84205D00E4FBB
:10198000B84202D00D4FB84206D14FF6DF7739404A
:1019900046F01007394305E04FF65F77394044F0D1
:1019A0001007394302830184F0BD0000002C014080
:1019B000003401400004004000080040000C0040DA
:1019C000F0B50C461546002200210026078C4FF684
:1019D000FF6C07EA0C070784828B018C4FF6FF77B8
:1019E00007EA04264FF60C773A404FF6FF7707EAEE
:1019F00003172F433A43114FB8420ED0104FB8424D
:101A00000BD0B0F1804F08D00E4FB84205D00E4F2A
:101A1000B84202D00D4FB84206D14FF6FF573940B9
:101A200046F48077394305E04FF2FF57394044F4DC
:101A30008077394382830184F0BD0000002C01408F
:101A4000003401400004004000080040000C004049
:101A5000F0B50C461546002200210026078C4EF6F4
:101A6000FF7C07EA0C070784828B018C4FF6FF7717
:101A700007EA043640F6FF473A404FF6FF7707EA99
:101A800005273A434FF6FF7707EA03373A43114FEA
:101A9000B8420ED0104FB8420BD0B0F1804F08D0F2
:101AA0000E4FB84205D00E4FB84202D00D4FB8428B
:101AB00006D14DF6FF77394046F48057394305E0AB
:101AC00047F6FF57394044F48057394382830184F5
:101AD000F0BD0000002C0140003401400004004033
:101AE00000080040000C004030B589B005460C46A7
:101AF0000121C802FFF76AFD01210420FFF766FDFE
:101B00004FF47060ADF8200018208DF823000320FA
:101B10008DF8220008A92448FEF720FFADF81850E0
:101B2000ADF814400020ADF81A00ADF8160005A974
:101B30001E4800F01DFB6020ADF804000120ADF848
:101B400006000020ADF80A00ADF80C0001A9174806
:101B500000F084F901A9154800F0D6F901A913484D
:101B600000F032FA01A9114800F088FA01210F486B
:101B700000F0CAF808210D4800F0BCF908210B4814
:101B800000F014FA0821094800F06EFA082107480D
:101B900000F0B2FA0121054800F098F8012103484D
:101BA00000F0A6F809B030BD00080140002C01404B
:101BB00010B50121880700F0D7F818B10121880776
:101BC00000F093F810BD000010B50121044800F0AA
:101BD000CBF818B10121034800F087F810BD0000D0
:101BE000000400400008004010B50121044800F046
:101BF000BBF818B10121024800F077F810BD0000D1
:101C00000008004010B50121064800F0ADF840B1D1
:101C100005480068401C044908600121014800F0A3
:101C200064F810BD00100040AC00002000B587B083
:101C300001214803FFF7CAFC01211020FFF7C6FC71
:101C4000C020ADF8000004208DF8030069461D484F
:101C5000FEF784FE04A800F0DDFA0020ADF81000C5
:101C60004FF6FF70ADF814000020ADF81600ADF887
:101C700012008DF8180004A9134800F079FA002327
:101C80001A460321104800F04EF801A800F0D4F8DD
:101C90000A20ADF80C0001A90B4800F077F80121EB
:101CA000094800F01FF801221146074800F0CDF85E
:101CB0000021054800F02DFA0121034800F018F832
:101CC00007B000BD001001400034014021B102887E
:101CD00042F08002028004E002884FF67F731A40CF
:101CE00002807047CA4302827047CA43028270472B
:101CF00021B1028842F00102028004E002884FF61E
:101D0000FE731A400280704731B1B0F8442042F4AB
:101D10000042A0F8442005E0B0F84420C2F30E02CF
:101D2000A0F844207047F0B50C4615461E46002129
:101D3000002200230189028B038C4FF6F87739408B
:101D400021434FF6FC473A4040F201173A434FF621
:101D5000DD773B404FF6FF7707EA06172F433B43FB
:101D6000018102830384F0BD30B5024600200023C8
:101D70000024158A05EA0103958905EA010413B1D7
:101D80000CB1012000E0002030BD000070B5054618
:101D90000C46244885420ED0234885420BD0B5F12D
:101DA000804F08D02148854205D02148854202D085
:101DB0002048854200D100E000BF208850B9238927
:101DC000A28861882846FFF76FFDE188284600F069
:101DD000A2F925E0208804280AD12389A2886188F5
:101DE0002846FFF7A1FDE188284600F09DF917E09D
:101DF000208808280AD12389A28861882846FFF70D
:101E0000DFFDE188284600F09CF909E02389A288DB
:101E100061882846FFF71CFEE188284600F09AF901
:101E200070BD0000002C014000340140000400405F
:101E300000080040000C0040002101804180012189
:101E400081800021C180018170471AB183890B43D1
:101E5000838102E083898B438381704770B50024BE
:101E600000220023058C4FF6FE7635400584028C57
:101E70008388048B4FF68F752C40B51E2C400D883F
:101E80002C43751E2A400D892A434D882A43144D40
:101E9000A8420BD0134DA84208D0134DA84205D03C
:101EA000124DA84202D0124DA84213D14FF6F77539
:101EB0002A404D892A434FF6FB752A408D882A43D4
:101EC0004FF6FF652B404FF6FF552B408D892B4376
:101ED000CD892B4383800483CD888586028470BDA1
:101EE000002C01400034014000400140004401400A
:101EF000004801400A460021018B4FF6F773194054
:101F0000114301837047000070B5002400220023B4
:101F1000058C4FF6EF7635400584028C8388048B60
:101F200048F6FF752C404FF6FF452C400D884FF6C4
:101F3000FF7606EA05252C434FF6DF752A400D890A
:101F400006EA05152A434D8806EA05152A43154D6C
:101F5000A84202D0144DA8421DD14FF67F752A40E9
:101F60004D894FF6FF7606EA05152A434FF6BF75F1
:101F70002A408D8806EA05152A434FF6FF352B4087
:101F80004FF2FF752B408D8906EA85052B43CD89DD
:101F900006EA85052B4383800483CD880587028468
:101FA00070BD0000002C0140003401400A460021B1
:101FB000018B4FF2FF7319404FF6FF7303EA0223C0
:101FC000194301837047000070B5002400220023EC
:101FD000058C4FF6FF6635400584028C8388848B20
:101FE0004FF68F752C404FF6FC752C400D882C4316
:101FF0004FF6FF552A400D894FF6FF7606EA052574
:102000002A434D8806EA05252A43154DA84202D0E9
:10201000144DA8421DD14FF2FF752A404D894FF64D
:10202000FF7606EA05252A434FF6FF352A408D88BC
:1020300006EA05252A434EF6FF752B404DF6FF753F
:102040002B408D8906EA05152B43CD8906EA051537
:102050002B4383808483CD888587028470BD0000F4
:10206000002C0140003401400A460021818B4FF6CC
:10207000F7731940114381837047000070B5002247
:1020800000230024058C4EF6FF7635400584038C32
:102090008488828B48F6FF752A404FF6FF452A4018
:1020A0000D884FF6FF7606EA05252A434DF6FF75A3
:1020B0002B400D8906EA05352B434D8806EA053588
:1020C0002B430B4DA84202D00A4DA84208D14BF633
:1020D000FF752C408D894FF6FF7606EA85152C4357
:1020E00084808283CD88A0F84050038470BD0000B6
:1020F000002C0140003401400A460021818B4FF240
:10210000FF7319404FF6FF7303EA022319438183DB
:10211000704781847047028B4FF6F3731A40028335
:10212000028B0A4302837047028B4FF2FF331A403F
:102130000283028B4FF6FF7303EA01231A430283E3
:102140007047828B4FF6F3731A408283828B0A4367
:1021500082837047828B4FF2FF331A408283828BD7
:102160004FF6FF7303EA01231A438283704700008E
:10217000002202881D4B98420ED01D4B98420BD076
:10218000B0F1804F08D01B4B984205D01A4B9842B3
:1021900002D01A4B984204D14FF68F731A404B88E5
:1021A0001A43174B984207D0164B984204D04FF66B
:1021B000FF431A40CB881A4302808B8883850B88A3
:1021C00003850A4B98420BD0094B984208D00E4B1E
:1021D000984205D00D4B984202D00D4B984201D148
:1021E0000B7A03860123838270470000002C014094
:1021F000003401400004004000080040000C004092
:102200000010004000140040004001400044014024
:10221000004801404FF6FF71818000210180C1809C
:10222000418001727047000070B540F22551264888
:1022300000F0B5F9002846D0234800F06BFAC5B28B
:10224000312D07D0322D05D0332D03D003201F4967
:10225000087008E01E481D49097845541B4800785D
:10226000401C1A490870002406E01948005D303807
:10227000184941F82400641C062CF6DB134800784A
:10228000062802D101201449086012480068642120
:1022900048431049496801EB810100EB41000D49B9
:1022A000896808440D4908600A48C06864214843A9
:1022B0000849096901EB810100EB410005494969C1
:1022C00008440749086070BD00500040E301002049
:1022D000DC01002018020020C800002004010020BA
:1022E0000801002010B540F22551154800F057F9BB
:1022F00020B340F22551124800F0DAF81148006886
:1023000030B90F4800F006FAC4B22046FFF79EF835
:102310000C480068012806D1094800F0FBF9C4B256
:102320002046FEF74FFF07480068022806D1044800
:1023300000F0F0F9C4B22046FEF7E8FF10BD00003F
:1023400000440040F000002000B587B0012148049F
:10235000FFF71CF901210420FFF738F9254800F0A8
:10236000C3F80420ADF8180003208DF81A001820D7
:102370008DF81B0006A92048FEF7F0FA0820ADF8FA
:10238000180004208DF81B0006A91B48FEF7E6FA8A
:102390004FF4E13002900020ADF80C00ADF80E00D3
:1023A000ADF81000ADF814000C20ADF8120002A931
:1023B000104800F043F94FF4C060FEF7D5FD262029
:1023C0008DF8040000208DF805008DF8060001202E
:1023D0008DF8070001A8FEF78FFD012240F225517C
:1023E000044800F006F90121024800F070F807B037
:1023F00000BD0000004400400008014000B585B069
:1024000001210820FFF7E2F801218804FFF7BEF858
:102410004FF48060ADF8100018208DF813000320F1
:102420008DF8120004A91748FEF798FA4FF40060DF
:10243000ADF8100004208DF8130004A91148FEF730
:102440008DFA4FF4E13000900020ADF80400ADF8B3
:102450000600ADF80800ADF80C000C20ADF80A003D
:102460006946094800F0EAF8FEF71FFD012240F234
:102470002551054800F0BDF80121034800F027F878
:1024800005B000BD000C01400048004010B540F20E
:102490002551064800F083F838B1044800F03AF9B5
:1024A000C4B22146014800F03AF910BD004800408E
:1024B00010B50022002340F66A14A14200D100BFEB
:1024C0000A1201249440A3B2DC43048010BD21B160
:1024D000828942F40052828104E082894DF6FF73C2
:1024E0001A4082817047000010B50446204884429B
:1024F00009D101218803FFF779F800214FF48040CA
:10250000FFF774F832E01B48844209D101214804E6
:10251000FFF74CF800214FF40030FFF747F825E0B3
:102520001548844209D101218804FFF73FF80021B2
:102530004FF48020FFF73AF818E01048844209D1A0
:102540000121C804FFF732F800214FF40020FFF703
:102550002DF80BE00A48844208D101210805FFF755
:1025600025F800214FF48010FFF720F810BD00007F
:10257000003801400044004000480040004C00404A
:102580000050004002460020B1F5007F00D100BF9E
:1025900013880B400BB1012000E00020704770B59C
:1025A0000246002400230025002040F66A16B142AE
:1025B00000D100BFC1F3421501F01F03012606FA46
:1025C00003F3012D02D19689334006E0022D02D19A
:1025D000168A334001E0968A33400C12012606FA2F
:1025E00004F41688344013B10CB1012000E000203F
:1025F00070BDF0B50346002400260025002040F6FB
:102600006A17B94200D100BF1846C1F3421401F065
:102610001F06012707FA06F5012C01D10C3004E052
:10262000022C01D1103000E014301AB107682F439A
:10263000076002E00768AF430760F0BD2DE9F0478F
:1026400086B005460E460024A24600BFA1460027DC
:10265000B08900B100BF2F462C8A4CF6FF700440B1
:10266000F08804432C82AC894EF6F3100440B08805
:1026700031890843718908430443AC81AC8A4FF621
:10268000FF400440B0890443AC8201A8FEF7BEFFBE
:102690001F48874202D1DDF810A001E0DDF80CA050
:1026A000A88900F4004040B10AEBCA0000EB0A1010
:1026B00031684900B0FBF1F807E00AEBCA0000EB13
:1026C0000A1031688900B0FBF1F86420B8FBF0F023
:1026D00004012009642101FB1089A88900F400404D
:1026E00040B1322000EBC900B0FBF1F000F0070070
:1026F000044308E0322000EB09106421B0FBF1F044
:1027000000F00F0004432C8106B0BDE8F087000004
:102710000038014001468888C0F308007047C1F3C3
:1027200008028280704700BFFEE700000FB4054B2F
:1027300010B503A9044A029800F018F810BC5DF81F
:1027400014FB0000012C0008E401002002E008C88E
:10275000121F08C1002AFAD170477047002001E01B
:1027600001C1121F002AFBD1704700002DE9FF4F65
:1027700089B09B460446002506E025280BD05A4622
:102780000B999047641C6D1C20780028F5D10DB082
:102790002846BDE8F08F0027B8460122474900E0EF
:1027A000074314F8013F203B02FA03F00842F7D137
:1027B00020782E2819D114F8010F47F004072A2891
:1027C0000ED06FF02F022078A0F1300109290CD82B
:1027D00008EB880102EB410100EB0108641CF2E701
:1027E0000A98641C50F8048B0A9020780028CED0F8
:1027F000642808D0692806D075281ED05A460B993F
:1028000090476D1C58E00A994FF00A0901C90A91D6
:10281000002802DA40422D2102E0390504D52B219F
:102820008DF82010012103E0F90704D02021F7E7FB
:102830008A4608AE0DE00021FAE70A994FF00A092E
:1028400001C90A91F7E74946FDF771FE303106F8F4
:10285000011D0028F7D1ADEB060000F12009780733
:1028600001D44FF00108C84502DDA8EB090000E0E3
:1028700000208046002706E008A85A46C05D0B9954
:1028800090476D1C7F1C5745F6DB04E030205A460C
:102890000B9990476D1CB8F10001A8F10108F5DC17
:1028A00005E016F8010B5A460B9990476D1CB9F1DB
:1028B0000001A9F10109F4DC641C65E709280100A5
:1028C0002DE9F04791220021042000F061FA002058
:1028D000534908604AE08C220021084600F058FA6B
:1028E0004F480068FDF7CAFD80464E4A4E4BFDF743
:1028F000E4FC064600224D4BFDF738FC0446FDF78C
:10290000CEFD824652460021012000F041FA4422C9
:102910000021022000F03CFA41480068FDF7AEFDBE
:102920008046434A434BFDF7C8FC06460022424B13
:10293000FDF7C0FC0446FDF7B2FD82465246002179
:10294000032000F025FA36480068232802DA082020
:1029500000F09CF832480068232802DD192000F0BE
:1029600095F82F480068401C2D4908602C480068E5
:102970002D28B0DBC82000F089F83C22002104207B
:1029800000F006FAC82000F081F800202B4908600A
:1029900040E08C220021084600F0FAF92748006840
:1029A000FDF76CFD8046224A5242254BFDF785FC1F
:1029B00006460022234BFDF77DFC0446FDF76FFD24
:1029C000824652460021012000F0E2F94422002113
:1029D000022000F0DDF919480068FDF74FFD804640
:1029E000134A144BFDF769FC064600220F4BFDF716
:1029F000BDFB0446FDF753FD8246524600210320ED
:102A000000F0C6F9082000F041F80C480068401CAE
:102A10000A490860094800682D28BADBBDE8F0873C
:102A2000B00100208FC2F5285C8FFA3F00004E40B5
:102A3000C3F5285C8FC2F13F00805B40B4010020E9
:102A4000703DFE3F0020624010B56FF00400FEF7BD
:102A5000E5FE0A4800680A49B0FBF1F00949087030
:102A60000846007800EB4001C1EBC0104FF6FF7143
:102A700001EAC0000449088010BD000000000020E9
:102A800000127A000C0100200E0100200146114ABC
:102A900012884A434FF0E0235A6100229A611A4695
:102AA000126942F001021A6100BF4FF0E022106982
:102AB00000F001021AB100F48032002AF5D04FF084
:102AC000E022126922F001024FF0E0231A61002295
:102AD0009A6170470E0100200146114A12784A435C
:102AE0004FF0E0235A6100229A611A46126942F0BF
:102AF00001021A6100BF4FF0E022106900F00102EC
:102B00001AB100F48032002AF5D04FF0E0221269A9
:102B100022F001024FF0E0231A6100229A6170470F
:102B20000C0100202DE9F041C1F30A52A2F2FF3658
:102B30002F4A304B0D460446142E2FDA002E12DA9F
:102B4000FDF714FB00221346FDF7CCFD4CD2002DFF
:102B5000A4BF0024254647DA25F00040204318BFD3
:102B6000254D41D018E0DFF894C02CFA06F705EAAD
:102B7000070C5CEA040C08BFBDE8F081FDF7F6FA2B
:102B800000221346FDF7AEFD2ED2002D03DA4FF4DE
:102B90008010F0400544BD43002425E0332EC8BF1B
:102BA000BDE8F081A6F1140C4FF0FF3727FA0CF7BF
:102BB0003C4208BFBDE8F081FDF77CFB00221346D4
:102BC000FDF790FD10D2002D0DDA142E08BF6D1CFC
:102BD00009D0C6F13400012101FA00F02044A042DE
:102BE00038BF6D1C0446BC4329462046BDE8F08131
:102BF0009C7500883CE4377E0000F0BFFFFF0F00AB
:102C000070B504460D46E1B20548FFF788FD00BFE8
:102C100080210348FFF7B6FC0028F9D0204670BD9C
:102C20000048004010B5FFF70FFFFEF701F900F074
:102C30007BF900F01DF9FDF7BDFF0021084600F00B
:102C4000CBF8104800F03EF8FFF7D8FB4FF41650D1
:102C500000F07CF9FFF778FBFDF710FF82220021DE
:102C6000042000F095F84FF47A70FFF70FFF4FF44F
:102C70007A70FFF70BFFFEF799F9FFF721FE0020AE
:102C800010BD00000000A54370B50446FEF748F8EB
:102C90008020FEF70BF8FEF78FF82046FEF706F8C7
:102CA000FEF78AF8FEF73CF88120FDF7FFFFFEF7FC
:102CB00083F80020FDF7C2FF0546FEF757F82846C7
:102CC00070BD00002DE9FC5F83465846FDF700FC0F
:102CD0008046294A294BFDF7F0FA0646FDF70BFC22
:102CE00083460024264D0022264B20462946FDF728
:102CF00056FB04460D465846FDF7EAFB06463246AB
:102D00000B4620462946FDF74AFB04460D460022A5
:102D10001D4B20462946FDF7CAFA04460D460022FF
:102D20001A4B20462946FDF721FA0646FFF7FAFE20
:102D30008046FDF7B4FBC0B201900020FFF7A4FF6E
:102D400082460AF07F0040F01000009000200099B9
:102D500000F042F8FE20019900F03EF851460020B4
:102D600000F03AF80220FFF791FE4AF0A10100209E
:102D700000F032F8BDE8FC9F713D0AD7A370ED3F2B
:102D800084D777410000B0400000F03F0000E03FF2
:102D900070B504460E46154605EB8500400000F26E
:102DA000A325F1B2A200921DD0B200F015F8A10047
:102DB000C91DC8B2C6F3072100F00EF8E9B2A2009F
:102DC0000832D0B200F008F8A1000931C8B2C5F34A
:102DD000072100F001F870BD70B505460C46FDF7FF
:102DE0009FFF8020FDF762FFFDF7E6FF2846FDF715
:102DF0005DFFFDF7E1FF2046FDF758FFFDF7DCFF23
:102E0000FDF7B4FF70BD7B2805D101220A700222B4
:102E10004A7003228A70842805D101220A70032295
:102E20004A7002228A70D52805D102220A70012236
:102E30004A7003228A70E72805D102220A70032211
:102E40004A7001228A70B0F59C7F05D103220A7076
:102E500001224A7002228A7040F24112904205D14A
:102E600003220A7002224A7001228A707047000011
:102E700008B501218020FEF7A9FB01210802FEF719
:102E8000A5FB01210420FEF7A1FB01212020FEF774
:102E90009DFB01211020FEF799FB01210820FEF780
:102EA00095FB03208DF8020004208DF803004FF2FB
:102EB000FF00ADF8000069461548FDF74FFD46F6E6
:102EC000E020ADF8000069461248FDF747FD4EF2DC
:102ED0002000ADF8000069460F48FDF73FFD4FF4B4
:102EE000E060ADF8000069460C48FDF737FD4FF48F
:102EF0008060ADF8000069460948FDF72FFD4FF4EA
:102F00004040ADF8000069460648FDF727FD08BDC2
:102F1000001C014000200140000801400014014055
:102F200000100140000C014010B5002141F61F4087
:102F3000FEF7DAFDFDF77CFFFEF778FEFDF72AFCD1
:102F4000FDF774FCFDF7BCFC10BD000010B586B0A9
:102F5000044601213020FEF739FB01210805FEF768
:102F600015FB4FF48050ADF8140018208DF81700B1
:102F700003208DF8160005A91548FDF7EFFC042085
:102F8000ADF814008DF8170005A91248FDF7E6FC0E
:102F900001940020ADF80800ADF80A00ADF80C006F
:102FA000ADF810000C20ADF80E0001A90A48FFF79B
:102FB00045FBFDF78DFF012240F225510648FFF742
:102FC00018FB01210448FFF782FA06B010BD00008B
:102FD000001001400014014000500040FC2F000888
:102FE00000000020E8010000380700084430000815
:102FF000E8010020D00800005C2700081184A24AE4
:1030000004680901020304060708090C6910360266
:10301000040608C032F932A432B0329932923282B8
:1030200032F832805A900832403220321032082969
:10303000612A0254015F2B03026204FF02010301B3
:043040001400000078
:0400000508000131BD
:00000001FF
